{
    "_format": "hh-sol-artifact-1",
    "contractName": "SaveAs",
    "sourceName": "contracts/SaveAs.sol",
    "abi": [
        {
            "inputs": [],
            "stateMutability": "payable",
            "type": "constructor"
        },
        {
            "anonymous": false,
            "inputs": [
                {
                    "indexed": true,
                    "internalType": "address",
                    "name": "owner",
                    "type": "address"
                },
                {
                    "indexed": true,
                    "internalType": "address",
                    "name": "approved",
                    "type": "address"
                },
                {
                    "indexed": true,
                    "internalType": "uint256",
                    "name": "tokenId",
                    "type": "uint256"
                }
            ],
            "name": "Approval",
            "type": "event"
        },
        {
            "anonymous": false,
            "inputs": [
                {
                    "indexed": true,
                    "internalType": "address",
                    "name": "owner",
                    "type": "address"
                },
                {
                    "indexed": true,
                    "internalType": "address",
                    "name": "operator",
                    "type": "address"
                },
                {
                    "indexed": false,
                    "internalType": "bool",
                    "name": "approved",
                    "type": "bool"
                }
            ],
            "name": "ApprovalForAll",
            "type": "event"
        },
        {
            "anonymous": false,
            "inputs": [
                {
                    "indexed": true,
                    "internalType": "address",
                    "name": "previousOwner",
                    "type": "address"
                },
                {
                    "indexed": true,
                    "internalType": "address",
                    "name": "newOwner",
                    "type": "address"
                }
            ],
            "name": "OwnershipTransferred",
            "type": "event"
        },
        {
            "anonymous": false,
            "inputs": [
                {
                    "indexed": true,
                    "internalType": "address",
                    "name": "from",
                    "type": "address"
                },
                {
                    "indexed": true,
                    "internalType": "address",
                    "name": "to",
                    "type": "address"
                },
                {
                    "indexed": true,
                    "internalType": "uint256",
                    "name": "tokenId",
                    "type": "uint256"
                }
            ],
            "name": "Transfer",
            "type": "event"
        },
        {
            "inputs": [
                {
                    "internalType": "address",
                    "name": "to",
                    "type": "address"
                },
                {
                    "internalType": "uint256",
                    "name": "tokenId",
                    "type": "uint256"
                }
            ],
            "name": "approve",
            "outputs": [],
            "stateMutability": "nonpayable",
            "type": "function"
        },
        {
            "inputs": [
                {
                    "internalType": "address",
                    "name": "owner",
                    "type": "address"
                }
            ],
            "name": "balanceOf",
            "outputs": [
                {
                    "internalType": "uint256",
                    "name": "",
                    "type": "uint256"
                }
            ],
            "stateMutability": "view",
            "type": "function"
        },
        {
            "inputs": [
                {
                    "internalType": "uint256",
                    "name": "tokenId",
                    "type": "uint256"
                }
            ],
            "name": "getApproved",
            "outputs": [
                {
                    "internalType": "address",
                    "name": "",
                    "type": "address"
                }
            ],
            "stateMutability": "view",
            "type": "function"
        },
        {
            "inputs": [],
            "name": "initialize",
            "outputs": [],
            "stateMutability": "nonpayable",
            "type": "function"
        },
        {
            "inputs": [
                {
                    "internalType": "address",
                    "name": "owner",
                    "type": "address"
                },
                {
                    "internalType": "address",
                    "name": "operator",
                    "type": "address"
                }
            ],
            "name": "isApprovedForAll",
            "outputs": [
                {
                    "internalType": "bool",
                    "name": "",
                    "type": "bool"
                }
            ],
            "stateMutability": "view",
            "type": "function"
        },
        {
            "inputs": [],
            "name": "name",
            "outputs": [
                {
                    "internalType": "string",
                    "name": "",
                    "type": "string"
                }
            ],
            "stateMutability": "view",
            "type": "function"
        },
        {
            "inputs": [],
            "name": "owner",
            "outputs": [
                {
                    "internalType": "address",
                    "name": "",
                    "type": "address"
                }
            ],
            "stateMutability": "view",
            "type": "function"
        },
        {
            "inputs": [
                {
                    "internalType": "uint256",
                    "name": "tokenId",
                    "type": "uint256"
                }
            ],
            "name": "ownerOf",
            "outputs": [
                {
                    "internalType": "address",
                    "name": "",
                    "type": "address"
                }
            ],
            "stateMutability": "view",
            "type": "function"
        },
        {
            "inputs": [],
            "name": "renounceOwnership",
            "outputs": [],
            "stateMutability": "nonpayable",
            "type": "function"
        },
        {
            "inputs": [
                {
                    "internalType": "address",
                    "name": "to",
                    "type": "address"
                },
                {
                    "internalType": "string",
                    "name": "nftName",
                    "type": "string"
                },
                {
                    "internalType": "string",
                    "name": "nftDesc",
                    "type": "string"
                },
                {
                    "internalType": "string",
                    "name": "nftURL",
                    "type": "string"
                }
            ],
            "name": "safeMint",
            "outputs": [],
            "stateMutability": "nonpayable",
            "type": "function"
        },
        {
            "inputs": [
                {
                    "internalType": "address",
                    "name": "from",
                    "type": "address"
                },
                {
                    "internalType": "address",
                    "name": "to",
                    "type": "address"
                },
                {
                    "internalType": "uint256",
                    "name": "tokenId",
                    "type": "uint256"
                }
            ],
            "name": "safeTransferFrom",
            "outputs": [],
            "stateMutability": "nonpayable",
            "type": "function"
        },
        {
            "inputs": [
                {
                    "internalType": "address",
                    "name": "from",
                    "type": "address"
                },
                {
                    "internalType": "address",
                    "name": "to",
                    "type": "address"
                },
                {
                    "internalType": "uint256",
                    "name": "tokenId",
                    "type": "uint256"
                },
                {
                    "internalType": "bytes",
                    "name": "_data",
                    "type": "bytes"
                }
            ],
            "name": "safeTransferFrom",
            "outputs": [],
            "stateMutability": "nonpayable",
            "type": "function"
        },
        {
            "inputs": [
                {
                    "internalType": "address",
                    "name": "operator",
                    "type": "address"
                },
                {
                    "internalType": "bool",
                    "name": "approved",
                    "type": "bool"
                }
            ],
            "name": "setApprovalForAll",
            "outputs": [],
            "stateMutability": "nonpayable",
            "type": "function"
        },
        {
            "inputs": [
                {
                    "internalType": "bytes4",
                    "name": "interfaceId",
                    "type": "bytes4"
                }
            ],
            "name": "supportsInterface",
            "outputs": [
                {
                    "internalType": "bool",
                    "name": "",
                    "type": "bool"
                }
            ],
            "stateMutability": "view",
            "type": "function"
        },
        {
            "inputs": [],
            "name": "symbol",
            "outputs": [
                {
                    "internalType": "string",
                    "name": "",
                    "type": "string"
                }
            ],
            "stateMutability": "view",
            "type": "function"
        },
        {
            "inputs": [
                {
                    "internalType": "uint256",
                    "name": "tokenId",
                    "type": "uint256"
                }
            ],
            "name": "tokenURI",
            "outputs": [
                {
                    "internalType": "string",
                    "name": "",
                    "type": "string"
                }
            ],
            "stateMutability": "view",
            "type": "function"
        },
        {
            "inputs": [
                {
                    "internalType": "address",
                    "name": "from",
                    "type": "address"
                },
                {
                    "internalType": "address",
                    "name": "to",
                    "type": "address"
                },
                {
                    "internalType": "uint256",
                    "name": "tokenId",
                    "type": "uint256"
                }
            ],
            "name": "transferFrom",
            "outputs": [],
            "stateMutability": "nonpayable",
            "type": "function"
        },
        {
            "inputs": [
                {
                    "internalType": "address",
                    "name": "newOwner",
                    "type": "address"
                }
            ],
            "name": "transferOwnership",
            "outputs": [],
            "stateMutability": "nonpayable",
            "type": "function"
        }
    ],
    "bytecode": "0x6080604052600060019054906101000a900460ff166200002e5760008054906101000a900460ff16156200003f565b6200003e6200010b60201b60201c565b5b62000081576040517f08c379a00000000000000000000000000000000000000000000000000000000081526004016200007890620006c3565b60405180910390fd5b60008060019054906101000a900460ff161590508015620000d2576001600060016101000a81548160ff02191690831515021790555060016000806101000a81548160ff0219169083151502179055505b620000e26200012960201b60201c565b8015620001045760008060016101000a81548160ff0219169083151502179055505b506200081b565b60006200012330620002b860201b62000ef61760201c565b15905090565b600060019054906101000a900460ff16620001535760008054906101000a900460ff161562000164565b620001636200010b60201b60201c565b5b620001a6576040517f08c379a00000000000000000000000000000000000000000000000000000000081526004016200019d90620006c3565b60405180910390fd5b60008060019054906101000a900460ff161590508015620001f7576001600060016101000a81548160ff02191690831515021790555060016000806101000a81548160ff0219169083151502179055505b620002736040518060400160405280600681526020017f53617665417300000000000000000000000000000000000000000000000000008152506040518060400160405280600381526020017f4d544b0000000000000000000000000000000000000000000000000000000000815250620002db60201b60201c565b620002836200034360201b60201c565b620002936200039760201b60201c565b8015620002b55760008060016101000a81548160ff0219169083151502179055505b50565b6000808273ffffffffffffffffffffffffffffffffffffffff163b119050919050565b600060019054906101000a900460ff166200032d576040517f08c379a00000000000000000000000000000000000000000000000000000000081526004016200032490620006e5565b60405180910390fd5b6200033f8282620003fb60201b60201c565b5050565b600060019054906101000a900460ff1662000395576040517f08c379a00000000000000000000000000000000000000000000000000000000081526004016200038c90620006e5565b60405180910390fd5b565b600060019054906101000a900460ff16620003e9576040517f08c379a0000000000000000000000000000000000000000000000000000000008152600401620003e090620006e5565b60405180910390fd5b620003f96200048360201b60201c565b565b600060019054906101000a900460ff166200044d576040517f08c379a00000000000000000000000000000000000000000000000000000000081526004016200044490620006e5565b60405180910390fd5b816065908051906020019062000465929190620005c5565b5080606690805190602001906200047e929190620005c5565b505050565b600060019054906101000a900460ff16620004d5576040517f08c379a0000000000000000000000000000000000000000000000000000000008152600401620004cc90620006e5565b60405180910390fd5b620004f5620004e9620004f760201b60201c565b620004ff60201b60201c565b565b600033905090565b600060c960009054906101000a900473ffffffffffffffffffffffffffffffffffffffff1690508160c960006101000a81548173ffffffffffffffffffffffffffffffffffffffff021916908373ffffffffffffffffffffffffffffffffffffffff1602179055508173ffffffffffffffffffffffffffffffffffffffff168173ffffffffffffffffffffffffffffffffffffffff167f8be0079c531659141344cd1fd0a4f28419497f9722a3daafe3b4186f6b6457e060405160405180910390a35050565b828054620005d39062000718565b90600052602060002090601f016020900481019282620005f7576000855562000643565b82601f106200061257805160ff191683800117855562000643565b8280016001018555821562000643579182015b828111156200064257825182559160200191906001019062000625565b5b50905062000652919062000656565b5090565b5b808211156200067157600081600090555060010162000657565b5090565b600062000684602e8362000707565b915062000691826200077d565b604082019050919050565b6000620006ab602b8362000707565b9150620006b882620007cc565b604082019050919050565b60006020820190508181036000830152620006de8162000675565b9050919050565b6000602082019050818103600083015262000700816200069c565b9050919050565b600082825260208201905092915050565b600060028204905060018216806200073157607f821691505b602082108114156200074857620007476200074e565b5b50919050565b7f4e487b7100000000000000000000000000000000000000000000000000000000600052602260045260246000fd5b7f496e697469616c697a61626c653a20636f6e747261637420697320616c72656160008201527f647920696e697469616c697a6564000000000000000000000000000000000000602082015250565b7f496e697469616c697a61626c653a20636f6e7472616374206973206e6f74206960008201527f6e697469616c697a696e67000000000000000000000000000000000000000000602082015250565b613cf6806200082b6000396000f3fe608060405234801561001057600080fd5b50600436106101165760003560e01c8063715018a6116100a2578063a22cb46511610071578063a22cb465146102b9578063b88d4fde146102d5578063c87b56dd146102f1578063e985e9c514610321578063f2fde38b1461035157610116565b8063715018a6146102695780638129fc1c146102735780638da5cb5b1461027d57806395d89b411461029b57610116565b8063095ea7b3116100e9578063095ea7b3146101b557806323b872dd146101d157806342842e0e146101ed5780636352211e1461020957806370a082311461023957610116565b806301ffc9a71461011b57806303a80dfb1461014b57806306fdde0314610167578063081812fc14610185575b600080fd5b610135600480360381019061013091906127f5565b61036d565b6040516101429190612dfa565b60405180910390f35b6101656004803603810190610160919061270e565b61044f565b005b61016f61061b565b60405161017c9190612e15565b60405180910390f35b61019f600480360381019061019a9190612847565b6106ad565b6040516101ac9190612d93565b60405180910390f35b6101cf60048036038101906101ca91906127b9565b610732565b005b6101eb60048036038101906101e69190612608565b61084a565b005b61020760048036038101906102029190612608565b6108aa565b005b610223600480360381019061021e9190612847565b6108ca565b6040516102309190612d93565b60405180910390f35b610253600480360381019061024e91906125a3565b61097c565b60405161026091906130f5565b60405180910390f35b610271610a34565b005b61027b610abc565b005b610285610c24565b6040516102929190612d93565b60405180910390f35b6102a3610c4e565b6040516102b09190612e15565b60405180910390f35b6102d360048036038101906102ce91906126d2565b610ce0565b005b6102ef60048036038101906102ea9190612657565b610cf6565b005b61030b60048036038101906103069190612847565b610d58565b6040516103189190612e15565b60405180910390f35b61033b600480360381019061033691906125cc565b610d6a565b6040516103489190612dfa565b60405180910390f35b61036b600480360381019061036691906125a3565b610dfe565b005b60007f80ac58cd000000000000000000000000000000000000000000000000000000007bffffffffffffffffffffffffffffffffffffffffffffffffffffffff1916827bffffffffffffffffffffffffffffffffffffffffffffffffffffffff1916148061043857507f5b5e139f000000000000000000000000000000000000000000000000000000007bffffffffffffffffffffffffffffffffffffffffffffffffffffffff1916827bffffffffffffffffffffffffffffffffffffffffffffffffffffffff1916145b80610448575061044782610f19565b5b9050919050565b610457610f83565b73ffffffffffffffffffffffffffffffffffffffff16610475610c24565b73ffffffffffffffffffffffffffffffffffffffff16146104cb576040517f08c379a00000000000000000000000000000000000000000000000000000000081526004016104c290613055565b60405180910390fd5b60006104d760fb610f8b565b90506104e360fb610f99565b60006105118585856040516020016104fd93929190612d14565b604051602081830303815290604052610faf565b90506000816040516020016105269190612d71565b60405160208183030381529060405290506105756040518060400160405280601581526020017f0a2d2d2d2d2d2d2d2d2d2d2d2d2d2d2d2d2d2d2d2d000000000000000000000081525061114e565b61059d816040516020016105899190612cf2565b60405160208183030381529060405261114e565b6105db6040518060400160405280601581526020017f2d2d2d2d2d2d2d2d2d2d2d2d2d2d2d2d2d2d2d2d0a000000000000000000000081525061114e565b6105e587846111e7565b6105ef8382611205565b610612604051806060016040528060258152602001613c5c602591398433611279565b50505050505050565b60606065805461062a906133a5565b80601f0160208091040260200160405190810160405280929190818152602001828054610656906133a5565b80156106a35780601f10610678576101008083540402835291602001916106a3565b820191906000526020600020905b81548152906001019060200180831161068657829003601f168201915b5050505050905090565b60006106b882611318565b6106f7576040517f08c379a00000000000000000000000000000000000000000000000000000000081526004016106ee90613035565b60405180910390fd5b6069600083815260200190815260200160002060009054906101000a900473ffffffffffffffffffffffffffffffffffffffff169050919050565b600061073d826108ca565b90508073ffffffffffffffffffffffffffffffffffffffff168373ffffffffffffffffffffffffffffffffffffffff1614156107ae576040517f08c379a00000000000000000000000000000000000000000000000000000000081526004016107a590613095565b60405180910390fd5b8073ffffffffffffffffffffffffffffffffffffffff166107cd610f83565b73ffffffffffffffffffffffffffffffffffffffff1614806107fc57506107fb816107f6610f83565b610d6a565b5b61083b576040517f08c379a000000000000000000000000000000000000000000000000000000000815260040161083290612f55565b60405180910390fd5b6108458383611384565b505050565b61085b610855610f83565b8261143d565b61089a576040517f08c379a0000000000000000000000000000000000000000000000000000000008152600401610891906130b5565b60405180910390fd5b6108a583838361151b565b505050565b6108c583838360405180602001604052806000815250610cf6565b505050565b6000806067600084815260200190815260200160002060009054906101000a900473ffffffffffffffffffffffffffffffffffffffff169050600073ffffffffffffffffffffffffffffffffffffffff168173ffffffffffffffffffffffffffffffffffffffff161415610973576040517f08c379a000000000000000000000000000000000000000000000000000000000815260040161096a90612f95565b60405180910390fd5b80915050919050565b60008073ffffffffffffffffffffffffffffffffffffffff168273ffffffffffffffffffffffffffffffffffffffff1614156109ed576040517f08c379a00000000000000000000000000000000000000000000000000000000081526004016109e490612f75565b60405180910390fd5b606860008373ffffffffffffffffffffffffffffffffffffffff1673ffffffffffffffffffffffffffffffffffffffff168152602001908152602001600020549050919050565b610a3c610f83565b73ffffffffffffffffffffffffffffffffffffffff16610a5a610c24565b73ffffffffffffffffffffffffffffffffffffffff1614610ab0576040517f08c379a0000000000000000000000000000000000000000000000000000000008152600401610aa790613055565b60405180910390fd5b610aba6000611782565b565b600060019054906101000a900460ff16610ae45760008054906101000a900460ff1615610aed565b610aec611848565b5b610b2c576040517f08c379a0000000000000000000000000000000000000000000000000000000008152600401610b2390612fd5565b60405180910390fd5b60008060019054906101000a900460ff161590508015610b7c576001600060016101000a81548160ff02191690831515021790555060016000806101000a81548160ff0219169083151502179055505b610bf06040518060400160405280600681526020017f53617665417300000000000000000000000000000000000000000000000000008152506040518060400160405280600381526020017f4d544b0000000000000000000000000000000000000000000000000000000000815250611859565b610bf86118b6565b610c00611907565b8015610c215760008060016101000a81548160ff0219169083151502179055505b50565b600060c960009054906101000a900473ffffffffffffffffffffffffffffffffffffffff16905090565b606060668054610c5d906133a5565b80601f0160208091040260200160405190810160405280929190818152602001828054610c89906133a5565b8015610cd65780601f10610cab57610100808354040283529160200191610cd6565b820191906000526020600020905b815481529060010190602001808311610cb957829003601f168201915b5050505050905090565b610cf2610ceb610f83565b8383611960565b5050565b610d07610d01610f83565b8361143d565b610d46576040517f08c379a0000000000000000000000000000000000000000000000000000000008152600401610d3d906130b5565b60405180910390fd5b610d5284848484611acd565b50505050565b6060610d6382611b29565b9050919050565b6000606a60008473ffffffffffffffffffffffffffffffffffffffff1673ffffffffffffffffffffffffffffffffffffffff16815260200190815260200160002060008373ffffffffffffffffffffffffffffffffffffffff1673ffffffffffffffffffffffffffffffffffffffff16815260200190815260200160002060009054906101000a900460ff16905092915050565b610e06610f83565b73ffffffffffffffffffffffffffffffffffffffff16610e24610c24565b73ffffffffffffffffffffffffffffffffffffffff1614610e7a576040517f08c379a0000000000000000000000000000000000000000000000000000000008152600401610e7190613055565b60405180910390fd5b600073ffffffffffffffffffffffffffffffffffffffff168173ffffffffffffffffffffffffffffffffffffffff161415610eea576040517f08c379a0000000000000000000000000000000000000000000000000000000008152600401610ee190612e95565b60405180910390fd5b610ef381611782565b50565b6000808273ffffffffffffffffffffffffffffffffffffffff163b119050919050565b60007f01ffc9a7000000000000000000000000000000000000000000000000000000007bffffffffffffffffffffffffffffffffffffffffffffffffffffffff1916827bffffffffffffffffffffffffffffffffffffffffffffffffffffffff1916149050919050565b600033905090565b600081600001549050919050565b6001816000016000828254019250508190555050565b6060600082511415610fd257604051806020016040528060008152509050611149565b6000604051806060016040528060408152602001613c81604091399050600060036002855161100191906131da565b61100b9190613230565b60046110179190613261565b9050600060208261102891906131da565b67ffffffffffffffff811115611067577f4e487b7100000000000000000000000000000000000000000000000000000000600052604160045260246000fd5b6040519080825280601f01601f1916602001820160405280156110995781602001600182028036833780820191505090505b509050818152600183018586518101602084015b81831015611108576003830192508251603f8160121c168501518253600182019150603f81600c1c168501518253600182019150603f8160061c168501518253600182019150603f81168501518253600182019150506110ad565b60038951066001811461112257600281146111325761113d565b613d3d60f01b600283035261113d565b603d60f81b60018303525b50505050508093505050505b919050565b6111e4816040516024016111629190612e15565b6040516020818303038152906040527f41304fac000000000000000000000000000000000000000000000000000000007bffffffffffffffffffffffffffffffffffffffffffffffffffffffff19166020820180517bffffffffffffffffffffffffffffffffffffffffffffffffffffffff8381831617835250505050611c7b565b50565b611201828260405180602001604052806000815250611ca4565b5050565b61120e82611318565b61124d576040517f08c379a000000000000000000000000000000000000000000000000000000000815260040161124490612fb5565b60405180910390fd5b806097600084815260200190815260200160002090805190602001906112749291906123c7565b505050565b61131383838360405160240161129193929190612e37565b6040516020818303038152906040527fe3849f79000000000000000000000000000000000000000000000000000000007bffffffffffffffffffffffffffffffffffffffffffffffffffffffff19166020820180517bffffffffffffffffffffffffffffffffffffffffffffffffffffffff8381831617835250505050611c7b565b505050565b60008073ffffffffffffffffffffffffffffffffffffffff166067600084815260200190815260200160002060009054906101000a900473ffffffffffffffffffffffffffffffffffffffff1673ffffffffffffffffffffffffffffffffffffffff1614159050919050565b816069600083815260200190815260200160002060006101000a81548173ffffffffffffffffffffffffffffffffffffffff021916908373ffffffffffffffffffffffffffffffffffffffff160217905550808273ffffffffffffffffffffffffffffffffffffffff166113f7836108ca565b73ffffffffffffffffffffffffffffffffffffffff167f8c5be1e5ebec7d5bd14f71427d1e84f3dd0314c0f7b2291e5b200ac8c7c3b92560405160405180910390a45050565b600061144882611318565b611487576040517f08c379a000000000000000000000000000000000000000000000000000000000815260040161147e90612f35565b60405180910390fd5b6000611492836108ca565b90508073ffffffffffffffffffffffffffffffffffffffff168473ffffffffffffffffffffffffffffffffffffffff16148061150157508373ffffffffffffffffffffffffffffffffffffffff166114e9846106ad565b73ffffffffffffffffffffffffffffffffffffffff16145b8061151257506115118185610d6a565b5b91505092915050565b8273ffffffffffffffffffffffffffffffffffffffff1661153b826108ca565b73ffffffffffffffffffffffffffffffffffffffff1614611591576040517f08c379a000000000000000000000000000000000000000000000000000000000815260040161158890612eb5565b60405180910390fd5b600073ffffffffffffffffffffffffffffffffffffffff168273ffffffffffffffffffffffffffffffffffffffff161415611601576040517f08c379a00000000000000000000000000000000000000000000000000000000081526004016115f890612ef5565b60405180910390fd5b61160c838383611cff565b611617600082611384565b6001606860008573ffffffffffffffffffffffffffffffffffffffff1673ffffffffffffffffffffffffffffffffffffffff168152602001908152602001600020600082825461166791906132bb565b925050819055506001606860008473ffffffffffffffffffffffffffffffffffffffff1673ffffffffffffffffffffffffffffffffffffffff16815260200190815260200160002060008282546116be91906131da565b92505081905550816067600083815260200190815260200160002060006101000a81548173ffffffffffffffffffffffffffffffffffffffff021916908373ffffffffffffffffffffffffffffffffffffffff160217905550808273ffffffffffffffffffffffffffffffffffffffff168473ffffffffffffffffffffffffffffffffffffffff167fddf252ad1be2c89b69c2b068fc378daa952ba7f163c4a11628f55a4df523b3ef60405160405180910390a461177d838383611d04565b505050565b600060c960009054906101000a900473ffffffffffffffffffffffffffffffffffffffff1690508160c960006101000a81548173ffffffffffffffffffffffffffffffffffffffff021916908373ffffffffffffffffffffffffffffffffffffffff1602179055508173ffffffffffffffffffffffffffffffffffffffff168173ffffffffffffffffffffffffffffffffffffffff167f8be0079c531659141344cd1fd0a4f28419497f9722a3daafe3b4186f6b6457e060405160405180910390a35050565b600061185330610ef6565b15905090565b600060019054906101000a900460ff166118a8576040517f08c379a000000000000000000000000000000000000000000000000000000000815260040161189f906130d5565b60405180910390fd5b6118b28282611d09565b5050565b600060019054906101000a900460ff16611905576040517f08c379a00000000000000000000000000000000000000000000000000000000081526004016118fc906130d5565b60405180910390fd5b565b600060019054906101000a900460ff16611956576040517f08c379a000000000000000000000000000000000000000000000000000000000815260040161194d906130d5565b60405180910390fd5b61195e611d8a565b565b8173ffffffffffffffffffffffffffffffffffffffff168373ffffffffffffffffffffffffffffffffffffffff1614156119cf576040517f08c379a00000000000000000000000000000000000000000000000000000000081526004016119c690612f15565b60405180910390fd5b80606a60008573ffffffffffffffffffffffffffffffffffffffff1673ffffffffffffffffffffffffffffffffffffffff16815260200190815260200160002060008473ffffffffffffffffffffffffffffffffffffffff1673ffffffffffffffffffffffffffffffffffffffff16815260200190815260200160002060006101000a81548160ff0219169083151502179055508173ffffffffffffffffffffffffffffffffffffffff168373ffffffffffffffffffffffffffffffffffffffff167f17307eab39ab6107e8899845ad3d59bd9653f200f220920489ca2b5937696c3183604051611ac09190612dfa565b60405180910390a3505050565b611ad884848461151b565b611ae484848484611deb565b611b23576040517f08c379a0000000000000000000000000000000000000000000000000000000008152600401611b1a90612e75565b60405180910390fd5b50505050565b6060611b3482611318565b611b73576040517f08c379a0000000000000000000000000000000000000000000000000000000008152600401611b6a90613015565b60405180910390fd5b6000609760008481526020019081526020016000208054611b93906133a5565b80601f0160208091040260200160405190810160405280929190818152602001828054611bbf906133a5565b8015611c0c5780601f10611be157610100808354040283529160200191611c0c565b820191906000526020600020905b815481529060010190602001808311611bef57829003601f168201915b505050505090506000611c1d611f82565b9050600081511415611c33578192505050611c76565b600082511115611c68578082604051602001611c50929190612cce565b60405160208183030381529060405292505050611c76565b611c7184611f99565b925050505b919050565b60008151905060006a636f6e736f6c652e6c6f679050602083016000808483855afa5050505050565b611cae8383612040565b611cbb6000848484611deb565b611cfa576040517f08c379a0000000000000000000000000000000000000000000000000000000008152600401611cf190612e75565b60405180910390fd5b505050565b505050565b505050565b600060019054906101000a900460ff16611d58576040517f08c379a0000000000000000000000000000000000000000000000000000000008152600401611d4f906130d5565b60405180910390fd5b8160659080519060200190611d6e9291906123c7565b508060669080519060200190611d859291906123c7565b505050565b600060019054906101000a900460ff16611dd9576040517f08c379a0000000000000000000000000000000000000000000000000000000008152600401611dd0906130d5565b60405180910390fd5b611de9611de4610f83565b611782565b565b6000611e0c8473ffffffffffffffffffffffffffffffffffffffff16610ef6565b15611f75578373ffffffffffffffffffffffffffffffffffffffff1663150b7a02611e35610f83565b8786866040518563ffffffff1660e01b8152600401611e579493929190612dae565b602060405180830381600087803b158015611e7157600080fd5b505af1925050508015611ea257506040513d601f19601f82011682018060405250810190611e9f919061281e565b60015b611f25573d8060008114611ed2576040519150601f19603f3d011682016040523d82523d6000602084013e611ed7565b606091505b50600081511415611f1d576040517f08c379a0000000000000000000000000000000000000000000000000000000008152600401611f1490612e75565b60405180910390fd5b805181602001fd5b63150b7a0260e01b7bffffffffffffffffffffffffffffffffffffffffffffffffffffffff1916817bffffffffffffffffffffffffffffffffffffffffffffffffffffffff191614915050611f7a565b600190505b949350505050565b606060405180602001604052806000815250905090565b6060611fa482611318565b611fe3576040517f08c379a0000000000000000000000000000000000000000000000000000000008152600401611fda90613075565b60405180910390fd5b6000611fed611f82565b9050600081511161200d5760405180602001604052806000815250612038565b806120178461221a565b604051602001612028929190612cce565b6040516020818303038152906040525b915050919050565b600073ffffffffffffffffffffffffffffffffffffffff168273ffffffffffffffffffffffffffffffffffffffff1614156120b0576040517f08c379a00000000000000000000000000000000000000000000000000000000081526004016120a790612ff5565b60405180910390fd5b6120b981611318565b156120f9576040517f08c379a00000000000000000000000000000000000000000000000000000000081526004016120f090612ed5565b60405180910390fd5b61210560008383611cff565b6001606860008473ffffffffffffffffffffffffffffffffffffffff1673ffffffffffffffffffffffffffffffffffffffff168152602001908152602001600020600082825461215591906131da565b92505081905550816067600083815260200190815260200160002060006101000a81548173ffffffffffffffffffffffffffffffffffffffff021916908373ffffffffffffffffffffffffffffffffffffffff160217905550808273ffffffffffffffffffffffffffffffffffffffff16600073ffffffffffffffffffffffffffffffffffffffff167fddf252ad1be2c89b69c2b068fc378daa952ba7f163c4a11628f55a4df523b3ef60405160405180910390a461221660008383611d04565b5050565b60606000821415612262576040518060400160405280600181526020017f300000000000000000000000000000000000000000000000000000000000000081525090506123c2565b600082905060005b6000821461229457808061227d90613408565b915050600a8261228d9190613230565b915061226a565b60008167ffffffffffffffff8111156122d6577f4e487b7100000000000000000000000000000000000000000000000000000000600052604160045260246000fd5b6040519080825280601f01601f1916602001820160405280156123085781602001600182028036833780820191505090505b5090505b600085146123bb5760018261232191906132bb565b9150600a856123309190613451565b603061233c91906131da565b60f81b818381518110612378577f4e487b7100000000000000000000000000000000000000000000000000000000600052603260045260246000fd5b60200101907effffffffffffffffffffffffffffffffffffffffffffffffffffffffffffff1916908160001a905350600a856123b49190613230565b945061230c565b8093505050505b919050565b8280546123d3906133a5565b90600052602060002090601f0160209004810192826123f5576000855561243c565b82601f1061240e57805160ff191683800117855561243c565b8280016001018555821561243c579182015b8281111561243b578251825591602001919060010190612420565b5b509050612449919061244d565b5090565b5b8082111561246657600081600090555060010161244e565b5090565b600061247d61247884613135565b613110565b90508281526020810184848401111561249557600080fd5b6124a0848285613363565b509392505050565b60006124bb6124b684613166565b613110565b9050828152602081018484840111156124d357600080fd5b6124de848285613363565b509392505050565b6000813590506124f581613bff565b92915050565b60008135905061250a81613c16565b92915050565b60008135905061251f81613c2d565b92915050565b60008151905061253481613c2d565b92915050565b600082601f83011261254b57600080fd5b813561255b84826020860161246a565b91505092915050565b600082601f83011261257557600080fd5b81356125858482602086016124a8565b91505092915050565b60008135905061259d81613c44565b92915050565b6000602082840312156125b557600080fd5b60006125c3848285016124e6565b91505092915050565b600080604083850312156125df57600080fd5b60006125ed858286016124e6565b92505060206125fe858286016124e6565b9150509250929050565b60008060006060848603121561261d57600080fd5b600061262b868287016124e6565b935050602061263c868287016124e6565b925050604061264d8682870161258e565b9150509250925092565b6000806000806080858703121561266d57600080fd5b600061267b878288016124e6565b945050602061268c878288016124e6565b935050604061269d8782880161258e565b925050606085013567ffffffffffffffff8111156126ba57600080fd5b6126c68782880161253a565b91505092959194509250565b600080604083850312156126e557600080fd5b60006126f3858286016124e6565b9250506020612704858286016124fb565b9150509250929050565b6000806000806080858703121561272457600080fd5b6000612732878288016124e6565b945050602085013567ffffffffffffffff81111561274f57600080fd5b61275b87828801612564565b935050604085013567ffffffffffffffff81111561277857600080fd5b61278487828801612564565b925050606085013567ffffffffffffffff8111156127a157600080fd5b6127ad87828801612564565b91505092959194509250565b600080604083850312156127cc57600080fd5b60006127da858286016124e6565b92505060206127eb8582860161258e565b9150509250929050565b60006020828403121561280757600080fd5b600061281584828501612510565b91505092915050565b60006020828403121561283057600080fd5b600061283e84828501612525565b91505092915050565b60006020828403121561285957600080fd5b60006128678482850161258e565b91505092915050565b612879816132ef565b82525050565b61288881613301565b82525050565b600061289982613197565b6128a381856131ad565b93506128b3818560208601613372565b6128bc8161353e565b840191505092915050565b60006128d2826131a2565b6128dc81856131be565b93506128ec818560208601613372565b6128f58161353e565b840191505092915050565b600061290b826131a2565b61291581856131cf565b9350612925818560208601613372565b80840191505092915050565b600061293e6025836131cf565b91506129498261354f565b602582019050919050565b60006129616013836131cf565b915061296c8261359e565b601382019050919050565b60006129846032836131be565b915061298f826135c7565b604082019050919050565b60006129a76026836131be565b91506129b282613616565b604082019050919050565b60006129ca6025836131be565b91506129d582613665565b604082019050919050565b60006129ed601c836131be565b91506129f8826136b4565b602082019050919050565b6000612a106024836131be565b9150612a1b826136dd565b604082019050919050565b6000612a336019836131be565b9150612a3e8261372c565b602082019050919050565b6000612a56602c836131be565b9150612a6182613755565b604082019050919050565b6000612a796038836131be565b9150612a84826137a4565b604082019050919050565b6000612a9c602a836131be565b9150612aa7826137f3565b604082019050919050565b6000612abf6029836131be565b9150612aca82613842565b604082019050919050565b6000612ae2602e836131be565b9150612aed82613891565b604082019050919050565b6000612b05602e836131be565b9150612b10826138e0565b604082019050919050565b6000612b286002836131cf565b9150612b338261392f565b600282019050919050565b6000612b4b6020836131be565b9150612b5682613958565b602082019050919050565b6000612b6e600d836131cf565b9150612b7982613981565b600d82019050919050565b6000612b916031836131be565b9150612b9c826139aa565b604082019050919050565b6000612bb4602c836131be565b9150612bbf826139f9565b604082019050919050565b6000612bd76020836131be565b9150612be282613a48565b602082019050919050565b6000612bfa602f836131be565b9150612c0582613a71565b604082019050919050565b6000612c1d600a836131cf565b9150612c2882613ac0565b600a82019050919050565b6000612c406021836131be565b9150612c4b82613ae9565b604082019050919050565b6000612c63601d836131cf565b9150612c6e82613b38565b601d82019050919050565b6000612c866031836131be565b9150612c9182613b61565b604082019050919050565b6000612ca9602b836131be565b9150612cb482613bb0565b604082019050919050565b612cc881613359565b82525050565b6000612cda8285612900565b9150612ce68284612900565b91508190509392505050565b6000612cfd82612931565b9150612d098284612900565b915081905092915050565b6000612d1f82612c10565b9150612d2b8286612900565b9150612d3682612954565b9150612d428285612900565b9150612d4d82612b61565b9150612d598284612900565b9150612d6482612b1b565b9150819050949350505050565b6000612d7c82612c56565b9150612d888284612900565b915081905092915050565b6000602082019050612da86000830184612870565b92915050565b6000608082019050612dc36000830187612870565b612dd06020830186612870565b612ddd6040830185612cbf565b8181036060830152612def818461288e565b905095945050505050565b6000602082019050612e0f600083018461287f565b92915050565b60006020820190508181036000830152612e2f81846128c7565b905092915050565b60006060820190508181036000830152612e5181866128c7565b9050612e606020830185612cbf565b612e6d6040830184612870565b949350505050565b60006020820190508181036000830152612e8e81612977565b9050919050565b60006020820190508181036000830152612eae8161299a565b9050919050565b60006020820190508181036000830152612ece816129bd565b9050919050565b60006020820190508181036000830152612eee816129e0565b9050919050565b60006020820190508181036000830152612f0e81612a03565b9050919050565b60006020820190508181036000830152612f2e81612a26565b9050919050565b60006020820190508181036000830152612f4e81612a49565b9050919050565b60006020820190508181036000830152612f6e81612a6c565b9050919050565b60006020820190508181036000830152612f8e81612a8f565b9050919050565b60006020820190508181036000830152612fae81612ab2565b9050919050565b60006020820190508181036000830152612fce81612ad5565b9050919050565b60006020820190508181036000830152612fee81612af8565b9050919050565b6000602082019050818103600083015261300e81612b3e565b9050919050565b6000602082019050818103600083015261302e81612b84565b9050919050565b6000602082019050818103600083015261304e81612ba7565b9050919050565b6000602082019050818103600083015261306e81612bca565b9050919050565b6000602082019050818103600083015261308e81612bed565b9050919050565b600060208201905081810360008301526130ae81612c33565b9050919050565b600060208201905081810360008301526130ce81612c79565b9050919050565b600060208201905081810360008301526130ee81612c9c565b9050919050565b600060208201905061310a6000830184612cbf565b92915050565b600061311a61312b565b905061312682826133d7565b919050565b6000604051905090565b600067ffffffffffffffff8211156131505761314f61350f565b5b6131598261353e565b9050602081019050919050565b600067ffffffffffffffff8211156131815761318061350f565b5b61318a8261353e565b9050602081019050919050565b600081519050919050565b600081519050919050565b600082825260208201905092915050565b600082825260208201905092915050565b600081905092915050565b60006131e582613359565b91506131f083613359565b9250827fffffffffffffffffffffffffffffffffffffffffffffffffffffffffffffffff0382111561322557613224613482565b5b828201905092915050565b600061323b82613359565b915061324683613359565b925082613256576132556134b1565b5b828204905092915050565b600061326c82613359565b915061327783613359565b9250817fffffffffffffffffffffffffffffffffffffffffffffffffffffffffffffffff04831182151516156132b0576132af613482565b5b828202905092915050565b60006132c682613359565b91506132d183613359565b9250828210156132e4576132e3613482565b5b828203905092915050565b60006132fa82613339565b9050919050565b60008115159050919050565b60007fffffffff0000000000000000000000000000000000000000000000000000000082169050919050565b600073ffffffffffffffffffffffffffffffffffffffff82169050919050565b6000819050919050565b82818337600083830152505050565b60005b83811015613390578082015181840152602081019050613375565b8381111561339f576000848401525b50505050565b600060028204905060018216806133bd57607f821691505b602082108114156133d1576133d06134e0565b5b50919050565b6133e08261353e565b810181811067ffffffffffffffff821117156133ff576133fe61350f565b5b80604052505050565b600061341382613359565b91507fffffffffffffffffffffffffffffffffffffffffffffffffffffffffffffffff82141561344657613445613482565b5b600182019050919050565b600061345c82613359565b915061346783613359565b925082613477576134766134b1565b5b828206905092915050565b7f4e487b7100000000000000000000000000000000000000000000000000000000600052601160045260246000fd5b7f4e487b7100000000000000000000000000000000000000000000000000000000600052601260045260246000fd5b7f4e487b7100000000000000000000000000000000000000000000000000000000600052602260045260246000fd5b7f4e487b7100000000000000000000000000000000000000000000000000000000600052604160045260246000fd5b6000601f19601f8301169050919050565b7f68747470733a2f2f6e6674707265766965772e30786465762e636f6465732f3f60008201527f636f64653d000000000000000000000000000000000000000000000000000000602082015250565b7f222c20226465736372697074696f6e223a202200000000000000000000000000600082015250565b7f4552433732313a207472616e7366657220746f206e6f6e20455243373231526560008201527f63656976657220696d706c656d656e7465720000000000000000000000000000602082015250565b7f4f776e61626c653a206e6577206f776e657220697320746865207a65726f206160008201527f6464726573730000000000000000000000000000000000000000000000000000602082015250565b7f4552433732313a207472616e736665722066726f6d20696e636f72726563742060008201527f6f776e6572000000000000000000000000000000000000000000000000000000602082015250565b7f4552433732313a20746f6b656e20616c7265616479206d696e74656400000000600082015250565b7f4552433732313a207472616e7366657220746f20746865207a65726f2061646460008201527f7265737300000000000000000000000000000000000000000000000000000000602082015250565b7f4552433732313a20617070726f766520746f2063616c6c657200000000000000600082015250565b7f4552433732313a206f70657261746f7220717565727920666f72206e6f6e657860008201527f697374656e7420746f6b656e0000000000000000000000000000000000000000602082015250565b7f4552433732313a20617070726f76652063616c6c6572206973206e6f74206f7760008201527f6e6572206e6f7220617070726f76656420666f7220616c6c0000000000000000602082015250565b7f4552433732313a2062616c616e636520717565727920666f7220746865207a6560008201527f726f206164647265737300000000000000000000000000000000000000000000602082015250565b7f4552433732313a206f776e657220717565727920666f72206e6f6e657869737460008201527f656e7420746f6b656e0000000000000000000000000000000000000000000000602082015250565b7f45524337323155524953746f726167653a2055524920736574206f66206e6f6e60008201527f6578697374656e7420746f6b656e000000000000000000000000000000000000602082015250565b7f496e697469616c697a61626c653a20636f6e747261637420697320616c72656160008201527f647920696e697469616c697a6564000000000000000000000000000000000000602082015250565b7f227d000000000000000000000000000000000000000000000000000000000000600082015250565b7f4552433732313a206d696e7420746f20746865207a65726f2061646472657373600082015250565b7f222c2022696d616765223a202200000000000000000000000000000000000000600082015250565b7f45524337323155524953746f726167653a2055524920717565727920666f722060008201527f6e6f6e6578697374656e7420746f6b656e000000000000000000000000000000602082015250565b7f4552433732313a20617070726f76656420717565727920666f72206e6f6e657860008201527f697374656e7420746f6b656e0000000000000000000000000000000000000000602082015250565b7f4f776e61626c653a2063616c6c6572206973206e6f7420746865206f776e6572600082015250565b7f4552433732314d657461646174613a2055524920717565727920666f72206e6f60008201527f6e6578697374656e7420746f6b656e0000000000000000000000000000000000602082015250565b7f7b226e616d65223a202200000000000000000000000000000000000000000000600082015250565b7f4552433732313a20617070726f76616c20746f2063757272656e74206f776e6560008201527f7200000000000000000000000000000000000000000000000000000000000000602082015250565b7f646174613a6170706c69636174696f6e2f6a736f6e3b6261736536342c000000600082015250565b7f4552433732313a207472616e736665722063616c6c6572206973206e6f74206f60008201527f776e6572206e6f7220617070726f766564000000000000000000000000000000602082015250565b7f496e697469616c697a61626c653a20636f6e7472616374206973206e6f74206960008201527f6e697469616c697a696e67000000000000000000000000000000000000000000602082015250565b613c08816132ef565b8114613c1357600080fd5b50565b613c1f81613301565b8114613c2a57600080fd5b50565b613c368161330d565b8114613c4157600080fd5b50565b613c4d81613359565b8114613c5857600080fd5b5056fe416e204e465420772f20494420257320686173206265656e206d696e74656420746f2025734142434445464748494a4b4c4d4e4f505152535455565758595a6162636465666768696a6b6c6d6e6f707172737475767778797a303132333435363738392b2fa2646970667358221220ed541f32e62abd2d799e5c7a73c29924e81726a80eca7404b65267faab3e20b064736f6c63430008040033",
    "linkReferences": {},
    "deployedLinkReferences": {}
}