{
  "_format": "hh-sol-artifact-1",
  "contractName": "SaveAs",
  "sourceName": "contracts/SaveAs.sol",
  "abi": [
    {
      "inputs": [],
      "stateMutability": "payable",
      "type": "constructor"
    },
    {
      "anonymous": false,
      "inputs": [
        {
          "indexed": true,
          "internalType": "address",
          "name": "owner",
          "type": "address"
        },
        {
          "indexed": true,
          "internalType": "address",
          "name": "approved",
          "type": "address"
        },
        {
          "indexed": true,
          "internalType": "uint256",
          "name": "tokenId",
          "type": "uint256"
        }
      ],
      "name": "Approval",
      "type": "event"
    },
    {
      "anonymous": false,
      "inputs": [
        {
          "indexed": true,
          "internalType": "address",
          "name": "owner",
          "type": "address"
        },
        {
          "indexed": true,
          "internalType": "address",
          "name": "operator",
          "type": "address"
        },
        {
          "indexed": false,
          "internalType": "bool",
          "name": "approved",
          "type": "bool"
        }
      ],
      "name": "ApprovalForAll",
      "type": "event"
    },
    {
      "anonymous": false,
      "inputs": [
        {
          "indexed": true,
          "internalType": "address",
          "name": "previousOwner",
          "type": "address"
        },
        {
          "indexed": true,
          "internalType": "address",
          "name": "newOwner",
          "type": "address"
        }
      ],
      "name": "OwnershipTransferred",
      "type": "event"
    },
    {
      "anonymous": false,
      "inputs": [
        {
          "indexed": true,
          "internalType": "address",
          "name": "from",
          "type": "address"
        },
        {
          "indexed": true,
          "internalType": "address",
          "name": "to",
          "type": "address"
        },
        {
          "indexed": true,
          "internalType": "uint256",
          "name": "tokenId",
          "type": "uint256"
        }
      ],
      "name": "Transfer",
      "type": "event"
    },
    {
      "inputs": [
        {
          "internalType": "address",
          "name": "to",
          "type": "address"
        },
        {
          "internalType": "uint256",
          "name": "tokenId",
          "type": "uint256"
        }
      ],
      "name": "approve",
      "outputs": [],
      "stateMutability": "nonpayable",
      "type": "function"
    },
    {
      "inputs": [
        {
          "internalType": "address",
          "name": "owner",
          "type": "address"
        }
      ],
      "name": "balanceOf",
      "outputs": [
        {
          "internalType": "uint256",
          "name": "",
          "type": "uint256"
        }
      ],
      "stateMutability": "view",
      "type": "function"
    },
    {
      "inputs": [
        {
          "internalType": "uint256",
          "name": "tokenId",
          "type": "uint256"
        }
      ],
      "name": "getApproved",
      "outputs": [
        {
          "internalType": "address",
          "name": "",
          "type": "address"
        }
      ],
      "stateMutability": "view",
      "type": "function"
    },
    {
      "inputs": [],
      "name": "initialize",
      "outputs": [],
      "stateMutability": "nonpayable",
      "type": "function"
    },
    {
      "inputs": [
        {
          "internalType": "address",
          "name": "owner",
          "type": "address"
        },
        {
          "internalType": "address",
          "name": "operator",
          "type": "address"
        }
      ],
      "name": "isApprovedForAll",
      "outputs": [
        {
          "internalType": "bool",
          "name": "",
          "type": "bool"
        }
      ],
      "stateMutability": "view",
      "type": "function"
    },
    {
      "inputs": [],
      "name": "name",
      "outputs": [
        {
          "internalType": "string",
          "name": "",
          "type": "string"
        }
      ],
      "stateMutability": "view",
      "type": "function"
    },
    {
      "inputs": [],
      "name": "owner",
      "outputs": [
        {
          "internalType": "address",
          "name": "",
          "type": "address"
        }
      ],
      "stateMutability": "view",
      "type": "function"
    },
    {
      "inputs": [
        {
          "internalType": "uint256",
          "name": "tokenId",
          "type": "uint256"
        }
      ],
      "name": "ownerOf",
      "outputs": [
        {
          "internalType": "address",
          "name": "",
          "type": "address"
        }
      ],
      "stateMutability": "view",
      "type": "function"
    },
    {
      "inputs": [],
      "name": "renounceOwnership",
      "outputs": [],
      "stateMutability": "nonpayable",
      "type": "function"
    },
    {
      "inputs": [
        {
          "internalType": "address",
          "name": "to",
          "type": "address"
        },
        {
          "internalType": "string",
          "name": "nftName",
          "type": "string"
        },
        {
          "internalType": "string",
          "name": "nftDesc",
          "type": "string"
        },
        {
          "internalType": "string",
          "name": "nftURL",
          "type": "string"
        }
      ],
      "name": "safeMint",
      "outputs": [],
      "stateMutability": "nonpayable",
      "type": "function"
    },
    {
      "inputs": [
        {
          "internalType": "address",
          "name": "from",
          "type": "address"
        },
        {
          "internalType": "address",
          "name": "to",
          "type": "address"
        },
        {
          "internalType": "uint256",
          "name": "tokenId",
          "type": "uint256"
        }
      ],
      "name": "safeTransferFrom",
      "outputs": [],
      "stateMutability": "nonpayable",
      "type": "function"
    },
    {
      "inputs": [
        {
          "internalType": "address",
          "name": "from",
          "type": "address"
        },
        {
          "internalType": "address",
          "name": "to",
          "type": "address"
        },
        {
          "internalType": "uint256",
          "name": "tokenId",
          "type": "uint256"
        },
        {
          "internalType": "bytes",
          "name": "_data",
          "type": "bytes"
        }
      ],
      "name": "safeTransferFrom",
      "outputs": [],
      "stateMutability": "nonpayable",
      "type": "function"
    },
    {
      "inputs": [
        {
          "internalType": "address",
          "name": "operator",
          "type": "address"
        },
        {
          "internalType": "bool",
          "name": "approved",
          "type": "bool"
        }
      ],
      "name": "setApprovalForAll",
      "outputs": [],
      "stateMutability": "nonpayable",
      "type": "function"
    },
    {
      "inputs": [
        {
          "internalType": "bytes4",
          "name": "interfaceId",
          "type": "bytes4"
        }
      ],
      "name": "supportsInterface",
      "outputs": [
        {
          "internalType": "bool",
          "name": "",
          "type": "bool"
        }
      ],
      "stateMutability": "view",
      "type": "function"
    },
    {
      "inputs": [],
      "name": "symbol",
      "outputs": [
        {
          "internalType": "string",
          "name": "",
          "type": "string"
        }
      ],
      "stateMutability": "view",
      "type": "function"
    },
    {
      "inputs": [
        {
          "internalType": "uint256",
          "name": "tokenId",
          "type": "uint256"
        }
      ],
      "name": "tokenURI",
      "outputs": [
        {
          "internalType": "string",
          "name": "",
          "type": "string"
        }
      ],
      "stateMutability": "view",
      "type": "function"
    },
    {
      "inputs": [
        {
          "internalType": "address",
          "name": "from",
          "type": "address"
        },
        {
          "internalType": "address",
          "name": "to",
          "type": "address"
        },
        {
          "internalType": "uint256",
          "name": "tokenId",
          "type": "uint256"
        }
      ],
      "name": "transferFrom",
      "outputs": [],
      "stateMutability": "nonpayable",
      "type": "function"
    },
    {
      "inputs": [
        {
          "internalType": "address",
          "name": "newOwner",
          "type": "address"
        }
      ],
      "name": "transferOwnership",
      "outputs": [],
      "stateMutability": "nonpayable",
      "type": "function"
    }
  ],
  "bytecode": "0x6080604052600060019054906101000a900460ff166200002e5760008054906101000a900460ff16156200003f565b6200003e6200010b60201b60201c565b5b62000081576040517f08c379a00000000000000000000000000000000000000000000000000000000081526004016200007890620006c3565b60405180910390fd5b60008060019054906101000a900460ff161590508015620000d2576001600060016101000a81548160ff02191690831515021790555060016000806101000a81548160ff0219169083151502179055505b620000e26200012960201b60201c565b8015620001045760008060016101000a81548160ff0219169083151502179055505b506200081b565b60006200012330620002b860201b62000e7a1760201c565b15905090565b600060019054906101000a900460ff16620001535760008054906101000a900460ff161562000164565b620001636200010b60201b60201c565b5b620001a6576040517f08c379a00000000000000000000000000000000000000000000000000000000081526004016200019d90620006c3565b60405180910390fd5b60008060019054906101000a900460ff161590508015620001f7576001600060016101000a81548160ff02191690831515021790555060016000806101000a81548160ff0219169083151502179055505b620002736040518060400160405280600681526020017f53617665417300000000000000000000000000000000000000000000000000008152506040518060400160405280600381526020017f4d544b0000000000000000000000000000000000000000000000000000000000815250620002db60201b60201c565b620002836200034360201b60201c565b620002936200039760201b60201c565b8015620002b55760008060016101000a81548160ff0219169083151502179055505b50565b6000808273ffffffffffffffffffffffffffffffffffffffff163b119050919050565b600060019054906101000a900460ff166200032d576040517f08c379a00000000000000000000000000000000000000000000000000000000081526004016200032490620006e5565b60405180910390fd5b6200033f8282620003fb60201b60201c565b5050565b600060019054906101000a900460ff1662000395576040517f08c379a00000000000000000000000000000000000000000000000000000000081526004016200038c90620006e5565b60405180910390fd5b565b600060019054906101000a900460ff16620003e9576040517f08c379a0000000000000000000000000000000000000000000000000000000008152600401620003e090620006e5565b60405180910390fd5b620003f96200048360201b60201c565b565b600060019054906101000a900460ff166200044d576040517f08c379a00000000000000000000000000000000000000000000000000000000081526004016200044490620006e5565b60405180910390fd5b816065908051906020019062000465929190620005c5565b5080606690805190602001906200047e929190620005c5565b505050565b600060019054906101000a900460ff16620004d5576040517f08c379a0000000000000000000000000000000000000000000000000000000008152600401620004cc90620006e5565b60405180910390fd5b620004f5620004e9620004f760201b60201c565b620004ff60201b60201c565b565b600033905090565b600060c960009054906101000a900473ffffffffffffffffffffffffffffffffffffffff1690508160c960006101000a81548173ffffffffffffffffffffffffffffffffffffffff021916908373ffffffffffffffffffffffffffffffffffffffff1602179055508173ffffffffffffffffffffffffffffffffffffffff168173ffffffffffffffffffffffffffffffffffffffff167f8be0079c531659141344cd1fd0a4f28419497f9722a3daafe3b4186f6b6457e060405160405180910390a35050565b828054620005d39062000718565b90600052602060002090601f016020900481019282620005f7576000855562000643565b82601f106200061257805160ff191683800117855562000643565b8280016001018555821562000643579182015b828111156200064257825182559160200191906001019062000625565b5b50905062000652919062000656565b5090565b5b808211156200067157600081600090555060010162000657565b5090565b600062000684602e8362000707565b915062000691826200077d565b604082019050919050565b6000620006ab602b8362000707565b9150620006b882620007cc565b604082019050919050565b60006020820190508181036000830152620006de8162000675565b9050919050565b6000602082019050818103600083015262000700816200069c565b9050919050565b600082825260208201905092915050565b600060028204905060018216806200073157607f821691505b602082108114156200074857620007476200074e565b5b50919050565b7f4e487b7100000000000000000000000000000000000000000000000000000000600052602260045260246000fd5b7f496e697469616c697a61626c653a20636f6e747261637420697320616c72656160008201527f647920696e697469616c697a6564000000000000000000000000000000000000602082015250565b7f496e697469616c697a61626c653a20636f6e7472616374206973206e6f74206960008201527f6e697469616c697a696e67000000000000000000000000000000000000000000602082015250565b613c7a806200082b6000396000f3fe608060405234801561001057600080fd5b50600436106101165760003560e01c8063715018a6116100a2578063a22cb46511610071578063a22cb465146102b9578063b88d4fde146102d5578063c87b56dd146102f1578063e985e9c514610321578063f2fde38b1461035157610116565b8063715018a6146102695780638129fc1c146102735780638da5cb5b1461027d57806395d89b411461029b57610116565b8063095ea7b3116100e9578063095ea7b3146101b557806323b872dd146101d157806342842e0e146101ed5780636352211e1461020957806370a082311461023957610116565b806301ffc9a71461011b57806303a80dfb1461014b57806306fdde0314610167578063081812fc14610185575b600080fd5b61013560048036038101906101309190612779565b61036d565b6040516101429190612d7e565b60405180910390f35b61016560048036038101906101609190612692565b61044f565b005b61016f61059f565b60405161017c9190612d99565b60405180910390f35b61019f600480360381019061019a91906127cb565b610631565b6040516101ac9190612d17565b60405180910390f35b6101cf60048036038101906101ca919061273d565b6106b6565b005b6101eb60048036038101906101e6919061258c565b6107ce565b005b6102076004803603810190610202919061258c565b61082e565b005b610223600480360381019061021e91906127cb565b61084e565b6040516102309190612d17565b60405180910390f35b610253600480360381019061024e9190612527565b610900565b6040516102609190613079565b60405180910390f35b6102716109b8565b005b61027b610a40565b005b610285610ba8565b6040516102929190612d17565b60405180910390f35b6102a3610bd2565b6040516102b09190612d99565b60405180910390f35b6102d360048036038101906102ce9190612656565b610c64565b005b6102ef60048036038101906102ea91906125db565b610c7a565b005b61030b600480360381019061030691906127cb565b610cdc565b6040516103189190612d99565b60405180910390f35b61033b60048036038101906103369190612550565b610cee565b6040516103489190612d7e565b60405180910390f35b61036b60048036038101906103669190612527565b610d82565b005b60007f80ac58cd000000000000000000000000000000000000000000000000000000007bffffffffffffffffffffffffffffffffffffffffffffffffffffffff1916827bffffffffffffffffffffffffffffffffffffffffffffffffffffffff1916148061043857507f5b5e139f000000000000000000000000000000000000000000000000000000007bffffffffffffffffffffffffffffffffffffffffffffffffffffffff1916827bffffffffffffffffffffffffffffffffffffffffffffffffffffffff1916145b80610448575061044782610e9d565b5b9050919050565b600061045b60fb610f07565b905061046760fb610f15565b600061049585858560405160200161048193929190612c98565b604051602081830303815290604052610f2b565b90506000816040516020016104aa9190612cf5565b60405160208183030381529060405290506104f96040518060400160405280601581526020017f0a2d2d2d2d2d2d2d2d2d2d2d2d2d2d2d2d2d2d2d2d00000000000000000000008152506110ca565b6105218160405160200161050d9190612c76565b6040516020818303038152906040526110ca565b61055f6040518060400160405280601581526020017f2d2d2d2d2d2d2d2d2d2d2d2d2d2d2d2d2d2d2d2d0a00000000000000000000008152506110ca565b6105698784611163565b6105738382611181565b610596604051806060016040528060258152602001613be06025913984336111f5565b50505050505050565b6060606580546105ae90613329565b80601f01602080910402602001604051908101604052809291908181526020018280546105da90613329565b80156106275780601f106105fc57610100808354040283529160200191610627565b820191906000526020600020905b81548152906001019060200180831161060a57829003601f168201915b5050505050905090565b600061063c82611294565b61067b576040517f08c379a000000000000000000000000000000000000000000000000000000000815260040161067290612fb9565b60405180910390fd5b6069600083815260200190815260200160002060009054906101000a900473ffffffffffffffffffffffffffffffffffffffff169050919050565b60006106c18261084e565b90508073ffffffffffffffffffffffffffffffffffffffff168373ffffffffffffffffffffffffffffffffffffffff161415610732576040517f08c379a000000000000000000000000000000000000000000000000000000000815260040161072990613019565b60405180910390fd5b8073ffffffffffffffffffffffffffffffffffffffff16610751611300565b73ffffffffffffffffffffffffffffffffffffffff161480610780575061077f8161077a611300565b610cee565b5b6107bf576040517f08c379a00000000000000000000000000000000000000000000000000000000081526004016107b690612ed9565b60405180910390fd5b6107c98383611308565b505050565b6107df6107d9611300565b826113c1565b61081e576040517f08c379a000000000000000000000000000000000000000000000000000000000815260040161081590613039565b60405180910390fd5b61082983838361149f565b505050565b61084983838360405180602001604052806000815250610c7a565b505050565b6000806067600084815260200190815260200160002060009054906101000a900473ffffffffffffffffffffffffffffffffffffffff169050600073ffffffffffffffffffffffffffffffffffffffff168173ffffffffffffffffffffffffffffffffffffffff1614156108f7576040517f08c379a00000000000000000000000000000000000000000000000000000000081526004016108ee90612f19565b60405180910390fd5b80915050919050565b60008073ffffffffffffffffffffffffffffffffffffffff168273ffffffffffffffffffffffffffffffffffffffff161415610971576040517f08c379a000000000000000000000000000000000000000000000000000000000815260040161096890612ef9565b60405180910390fd5b606860008373ffffffffffffffffffffffffffffffffffffffff1673ffffffffffffffffffffffffffffffffffffffff168152602001908152602001600020549050919050565b6109c0611300565b73ffffffffffffffffffffffffffffffffffffffff166109de610ba8565b73ffffffffffffffffffffffffffffffffffffffff1614610a34576040517f08c379a0000000000000000000000000000000000000000000000000000000008152600401610a2b90612fd9565b60405180910390fd5b610a3e6000611706565b565b600060019054906101000a900460ff16610a685760008054906101000a900460ff1615610a71565b610a706117cc565b5b610ab0576040517f08c379a0000000000000000000000000000000000000000000000000000000008152600401610aa790612f59565b60405180910390fd5b60008060019054906101000a900460ff161590508015610b00576001600060016101000a81548160ff02191690831515021790555060016000806101000a81548160ff0219169083151502179055505b610b746040518060400160405280600681526020017f53617665417300000000000000000000000000000000000000000000000000008152506040518060400160405280600381526020017f4d544b00000000000000000000000000000000000000000000000000000000008152506117dd565b610b7c61183a565b610b8461188b565b8015610ba55760008060016101000a81548160ff0219169083151502179055505b50565b600060c960009054906101000a900473ffffffffffffffffffffffffffffffffffffffff16905090565b606060668054610be190613329565b80601f0160208091040260200160405190810160405280929190818152602001828054610c0d90613329565b8015610c5a5780601f10610c2f57610100808354040283529160200191610c5a565b820191906000526020600020905b815481529060010190602001808311610c3d57829003601f168201915b5050505050905090565b610c76610c6f611300565b83836118e4565b5050565b610c8b610c85611300565b836113c1565b610cca576040517f08c379a0000000000000000000000000000000000000000000000000000000008152600401610cc190613039565b60405180910390fd5b610cd684848484611a51565b50505050565b6060610ce782611aad565b9050919050565b6000606a60008473ffffffffffffffffffffffffffffffffffffffff1673ffffffffffffffffffffffffffffffffffffffff16815260200190815260200160002060008373ffffffffffffffffffffffffffffffffffffffff1673ffffffffffffffffffffffffffffffffffffffff16815260200190815260200160002060009054906101000a900460ff16905092915050565b610d8a611300565b73ffffffffffffffffffffffffffffffffffffffff16610da8610ba8565b73ffffffffffffffffffffffffffffffffffffffff1614610dfe576040517f08c379a0000000000000000000000000000000000000000000000000000000008152600401610df590612fd9565b60405180910390fd5b600073ffffffffffffffffffffffffffffffffffffffff168173ffffffffffffffffffffffffffffffffffffffff161415610e6e576040517f08c379a0000000000000000000000000000000000000000000000000000000008152600401610e6590612e19565b60405180910390fd5b610e7781611706565b50565b6000808273ffffffffffffffffffffffffffffffffffffffff163b119050919050565b60007f01ffc9a7000000000000000000000000000000000000000000000000000000007bffffffffffffffffffffffffffffffffffffffffffffffffffffffff1916827bffffffffffffffffffffffffffffffffffffffffffffffffffffffff1916149050919050565b600081600001549050919050565b6001816000016000828254019250508190555050565b6060600082511415610f4e576040518060200160405280600081525090506110c5565b6000604051806060016040528060408152602001613c056040913990506000600360028551610f7d919061315e565b610f8791906131b4565b6004610f9391906131e5565b90506000602082610fa4919061315e565b67ffffffffffffffff811115610fe3577f4e487b7100000000000000000000000000000000000000000000000000000000600052604160045260246000fd5b6040519080825280601f01601f1916602001820160405280156110155781602001600182028036833780820191505090505b509050818152600183018586518101602084015b81831015611084576003830192508251603f8160121c168501518253600182019150603f81600c1c168501518253600182019150603f8160061c168501518253600182019150603f8116850151825360018201915050611029565b60038951066001811461109e57600281146110ae576110b9565b613d3d60f01b60028303526110b9565b603d60f81b60018303525b50505050508093505050505b919050565b611160816040516024016110de9190612d99565b6040516020818303038152906040527f41304fac000000000000000000000000000000000000000000000000000000007bffffffffffffffffffffffffffffffffffffffffffffffffffffffff19166020820180517bffffffffffffffffffffffffffffffffffffffffffffffffffffffff8381831617835250505050611bff565b50565b61117d828260405180602001604052806000815250611c28565b5050565b61118a82611294565b6111c9576040517f08c379a00000000000000000000000000000000000000000000000000000000081526004016111c090612f39565b60405180910390fd5b806097600084815260200190815260200160002090805190602001906111f092919061234b565b505050565b61128f83838360405160240161120d93929190612dbb565b6040516020818303038152906040527fe3849f79000000000000000000000000000000000000000000000000000000007bffffffffffffffffffffffffffffffffffffffffffffffffffffffff19166020820180517bffffffffffffffffffffffffffffffffffffffffffffffffffffffff8381831617835250505050611bff565b505050565b60008073ffffffffffffffffffffffffffffffffffffffff166067600084815260200190815260200160002060009054906101000a900473ffffffffffffffffffffffffffffffffffffffff1673ffffffffffffffffffffffffffffffffffffffff1614159050919050565b600033905090565b816069600083815260200190815260200160002060006101000a81548173ffffffffffffffffffffffffffffffffffffffff021916908373ffffffffffffffffffffffffffffffffffffffff160217905550808273ffffffffffffffffffffffffffffffffffffffff1661137b8361084e565b73ffffffffffffffffffffffffffffffffffffffff167f8c5be1e5ebec7d5bd14f71427d1e84f3dd0314c0f7b2291e5b200ac8c7c3b92560405160405180910390a45050565b60006113cc82611294565b61140b576040517f08c379a000000000000000000000000000000000000000000000000000000000815260040161140290612eb9565b60405180910390fd5b60006114168361084e565b90508073ffffffffffffffffffffffffffffffffffffffff168473ffffffffffffffffffffffffffffffffffffffff16148061148557508373ffffffffffffffffffffffffffffffffffffffff1661146d84610631565b73ffffffffffffffffffffffffffffffffffffffff16145b8061149657506114958185610cee565b5b91505092915050565b8273ffffffffffffffffffffffffffffffffffffffff166114bf8261084e565b73ffffffffffffffffffffffffffffffffffffffff1614611515576040517f08c379a000000000000000000000000000000000000000000000000000000000815260040161150c90612e39565b60405180910390fd5b600073ffffffffffffffffffffffffffffffffffffffff168273ffffffffffffffffffffffffffffffffffffffff161415611585576040517f08c379a000000000000000000000000000000000000000000000000000000000815260040161157c90612e79565b60405180910390fd5b611590838383611c83565b61159b600082611308565b6001606860008573ffffffffffffffffffffffffffffffffffffffff1673ffffffffffffffffffffffffffffffffffffffff16815260200190815260200160002060008282546115eb919061323f565b925050819055506001606860008473ffffffffffffffffffffffffffffffffffffffff1673ffffffffffffffffffffffffffffffffffffffff1681526020019081526020016000206000828254611642919061315e565b92505081905550816067600083815260200190815260200160002060006101000a81548173ffffffffffffffffffffffffffffffffffffffff021916908373ffffffffffffffffffffffffffffffffffffffff160217905550808273ffffffffffffffffffffffffffffffffffffffff168473ffffffffffffffffffffffffffffffffffffffff167fddf252ad1be2c89b69c2b068fc378daa952ba7f163c4a11628f55a4df523b3ef60405160405180910390a4611701838383611c88565b505050565b600060c960009054906101000a900473ffffffffffffffffffffffffffffffffffffffff1690508160c960006101000a81548173ffffffffffffffffffffffffffffffffffffffff021916908373ffffffffffffffffffffffffffffffffffffffff1602179055508173ffffffffffffffffffffffffffffffffffffffff168173ffffffffffffffffffffffffffffffffffffffff167f8be0079c531659141344cd1fd0a4f28419497f9722a3daafe3b4186f6b6457e060405160405180910390a35050565b60006117d730610e7a565b15905090565b600060019054906101000a900460ff1661182c576040517f08c379a000000000000000000000000000000000000000000000000000000000815260040161182390613059565b60405180910390fd5b6118368282611c8d565b5050565b600060019054906101000a900460ff16611889576040517f08c379a000000000000000000000000000000000000000000000000000000000815260040161188090613059565b60405180910390fd5b565b600060019054906101000a900460ff166118da576040517f08c379a00000000000000000000000000000000000000000000000000000000081526004016118d190613059565b60405180910390fd5b6118e2611d0e565b565b8173ffffffffffffffffffffffffffffffffffffffff168373ffffffffffffffffffffffffffffffffffffffff161415611953576040517f08c379a000000000000000000000000000000000000000000000000000000000815260040161194a90612e99565b60405180910390fd5b80606a60008573ffffffffffffffffffffffffffffffffffffffff1673ffffffffffffffffffffffffffffffffffffffff16815260200190815260200160002060008473ffffffffffffffffffffffffffffffffffffffff1673ffffffffffffffffffffffffffffffffffffffff16815260200190815260200160002060006101000a81548160ff0219169083151502179055508173ffffffffffffffffffffffffffffffffffffffff168373ffffffffffffffffffffffffffffffffffffffff167f17307eab39ab6107e8899845ad3d59bd9653f200f220920489ca2b5937696c3183604051611a449190612d7e565b60405180910390a3505050565b611a5c84848461149f565b611a6884848484611d6f565b611aa7576040517f08c379a0000000000000000000000000000000000000000000000000000000008152600401611a9e90612df9565b60405180910390fd5b50505050565b6060611ab882611294565b611af7576040517f08c379a0000000000000000000000000000000000000000000000000000000008152600401611aee90612f99565b60405180910390fd5b6000609760008481526020019081526020016000208054611b1790613329565b80601f0160208091040260200160405190810160405280929190818152602001828054611b4390613329565b8015611b905780601f10611b6557610100808354040283529160200191611b90565b820191906000526020600020905b815481529060010190602001808311611b7357829003601f168201915b505050505090506000611ba1611f06565b9050600081511415611bb7578192505050611bfa565b600082511115611bec578082604051602001611bd4929190612c52565b60405160208183030381529060405292505050611bfa565b611bf584611f1d565b925050505b919050565b60008151905060006a636f6e736f6c652e6c6f679050602083016000808483855afa5050505050565b611c328383611fc4565b611c3f6000848484611d6f565b611c7e576040517f08c379a0000000000000000000000000000000000000000000000000000000008152600401611c7590612df9565b60405180910390fd5b505050565b505050565b505050565b600060019054906101000a900460ff16611cdc576040517f08c379a0000000000000000000000000000000000000000000000000000000008152600401611cd390613059565b60405180910390fd5b8160659080519060200190611cf292919061234b565b508060669080519060200190611d0992919061234b565b505050565b600060019054906101000a900460ff16611d5d576040517f08c379a0000000000000000000000000000000000000000000000000000000008152600401611d5490613059565b60405180910390fd5b611d6d611d68611300565b611706565b565b6000611d908473ffffffffffffffffffffffffffffffffffffffff16610e7a565b15611ef9578373ffffffffffffffffffffffffffffffffffffffff1663150b7a02611db9611300565b8786866040518563ffffffff1660e01b8152600401611ddb9493929190612d32565b602060405180830381600087803b158015611df557600080fd5b505af1925050508015611e2657506040513d601f19601f82011682018060405250810190611e2391906127a2565b60015b611ea9573d8060008114611e56576040519150601f19603f3d011682016040523d82523d6000602084013e611e5b565b606091505b50600081511415611ea1576040517f08c379a0000000000000000000000000000000000000000000000000000000008152600401611e9890612df9565b60405180910390fd5b805181602001fd5b63150b7a0260e01b7bffffffffffffffffffffffffffffffffffffffffffffffffffffffff1916817bffffffffffffffffffffffffffffffffffffffffffffffffffffffff191614915050611efe565b600190505b949350505050565b606060405180602001604052806000815250905090565b6060611f2882611294565b611f67576040517f08c379a0000000000000000000000000000000000000000000000000000000008152600401611f5e90612ff9565b60405180910390fd5b6000611f71611f06565b90506000815111611f915760405180602001604052806000815250611fbc565b80611f9b8461219e565b604051602001611fac929190612c52565b6040516020818303038152906040525b915050919050565b600073ffffffffffffffffffffffffffffffffffffffff168273ffffffffffffffffffffffffffffffffffffffff161415612034576040517f08c379a000000000000000000000000000000000000000000000000000000000815260040161202b90612f79565b60405180910390fd5b61203d81611294565b1561207d576040517f08c379a000000000000000000000000000000000000000000000000000000000815260040161207490612e59565b60405180910390fd5b61208960008383611c83565b6001606860008473ffffffffffffffffffffffffffffffffffffffff1673ffffffffffffffffffffffffffffffffffffffff16815260200190815260200160002060008282546120d9919061315e565b92505081905550816067600083815260200190815260200160002060006101000a81548173ffffffffffffffffffffffffffffffffffffffff021916908373ffffffffffffffffffffffffffffffffffffffff160217905550808273ffffffffffffffffffffffffffffffffffffffff16600073ffffffffffffffffffffffffffffffffffffffff167fddf252ad1be2c89b69c2b068fc378daa952ba7f163c4a11628f55a4df523b3ef60405160405180910390a461219a60008383611c88565b5050565b606060008214156121e6576040518060400160405280600181526020017f30000000000000000000000000000000000000000000000000000000000000008152509050612346565b600082905060005b600082146122185780806122019061338c565b915050600a8261221191906131b4565b91506121ee565b60008167ffffffffffffffff81111561225a577f4e487b7100000000000000000000000000000000000000000000000000000000600052604160045260246000fd5b6040519080825280601f01601f19166020018201604052801561228c5781602001600182028036833780820191505090505b5090505b6000851461233f576001826122a5919061323f565b9150600a856122b491906133d5565b60306122c0919061315e565b60f81b8183815181106122fc577f4e487b7100000000000000000000000000000000000000000000000000000000600052603260045260246000fd5b60200101907effffffffffffffffffffffffffffffffffffffffffffffffffffffffffffff1916908160001a905350600a8561233891906131b4565b9450612290565b8093505050505b919050565b82805461235790613329565b90600052602060002090601f01602090048101928261237957600085556123c0565b82601f1061239257805160ff19168380011785556123c0565b828001600101855582156123c0579182015b828111156123bf5782518255916020019190600101906123a4565b5b5090506123cd91906123d1565b5090565b5b808211156123ea5760008160009055506001016123d2565b5090565b60006124016123fc846130b9565b613094565b90508281526020810184848401111561241957600080fd5b6124248482856132e7565b509392505050565b600061243f61243a846130ea565b613094565b90508281526020810184848401111561245757600080fd5b6124628482856132e7565b509392505050565b60008135905061247981613b83565b92915050565b60008135905061248e81613b9a565b92915050565b6000813590506124a381613bb1565b92915050565b6000815190506124b881613bb1565b92915050565b600082601f8301126124cf57600080fd5b81356124df8482602086016123ee565b91505092915050565b600082601f8301126124f957600080fd5b813561250984826020860161242c565b91505092915050565b60008135905061252181613bc8565b92915050565b60006020828403121561253957600080fd5b60006125478482850161246a565b91505092915050565b6000806040838503121561256357600080fd5b60006125718582860161246a565b92505060206125828582860161246a565b9150509250929050565b6000806000606084860312156125a157600080fd5b60006125af8682870161246a565b93505060206125c08682870161246a565b92505060406125d186828701612512565b9150509250925092565b600080600080608085870312156125f157600080fd5b60006125ff8782880161246a565b94505060206126108782880161246a565b935050604061262187828801612512565b925050606085013567ffffffffffffffff81111561263e57600080fd5b61264a878288016124be565b91505092959194509250565b6000806040838503121561266957600080fd5b60006126778582860161246a565b92505060206126888582860161247f565b9150509250929050565b600080600080608085870312156126a857600080fd5b60006126b68782880161246a565b945050602085013567ffffffffffffffff8111156126d357600080fd5b6126df878288016124e8565b935050604085013567ffffffffffffffff8111156126fc57600080fd5b612708878288016124e8565b925050606085013567ffffffffffffffff81111561272557600080fd5b612731878288016124e8565b91505092959194509250565b6000806040838503121561275057600080fd5b600061275e8582860161246a565b925050602061276f85828601612512565b9150509250929050565b60006020828403121561278b57600080fd5b600061279984828501612494565b91505092915050565b6000602082840312156127b457600080fd5b60006127c2848285016124a9565b91505092915050565b6000602082840312156127dd57600080fd5b60006127eb84828501612512565b91505092915050565b6127fd81613273565b82525050565b61280c81613285565b82525050565b600061281d8261311b565b6128278185613131565b93506128378185602086016132f6565b612840816134c2565b840191505092915050565b600061285682613126565b6128608185613142565b93506128708185602086016132f6565b612879816134c2565b840191505092915050565b600061288f82613126565b6128998185613153565b93506128a98185602086016132f6565b80840191505092915050565b60006128c2602583613153565b91506128cd826134d3565b602582019050919050565b60006128e5601383613153565b91506128f082613522565b601382019050919050565b6000612908603283613142565b91506129138261354b565b604082019050919050565b600061292b602683613142565b91506129368261359a565b604082019050919050565b600061294e602583613142565b9150612959826135e9565b604082019050919050565b6000612971601c83613142565b915061297c82613638565b602082019050919050565b6000612994602483613142565b915061299f82613661565b604082019050919050565b60006129b7601983613142565b91506129c2826136b0565b602082019050919050565b60006129da602c83613142565b91506129e5826136d9565b604082019050919050565b60006129fd603883613142565b9150612a0882613728565b604082019050919050565b6000612a20602a83613142565b9150612a2b82613777565b604082019050919050565b6000612a43602983613142565b9150612a4e826137c6565b604082019050919050565b6000612a66602e83613142565b9150612a7182613815565b604082019050919050565b6000612a89602e83613142565b9150612a9482613864565b604082019050919050565b6000612aac600283613153565b9150612ab7826138b3565b600282019050919050565b6000612acf602083613142565b9150612ada826138dc565b602082019050919050565b6000612af2600d83613153565b9150612afd82613905565b600d82019050919050565b6000612b15603183613142565b9150612b208261392e565b604082019050919050565b6000612b38602c83613142565b9150612b438261397d565b604082019050919050565b6000612b5b602083613142565b9150612b66826139cc565b602082019050919050565b6000612b7e602f83613142565b9150612b89826139f5565b604082019050919050565b6000612ba1600a83613153565b9150612bac82613a44565b600a82019050919050565b6000612bc4602183613142565b9150612bcf82613a6d565b604082019050919050565b6000612be7601d83613153565b9150612bf282613abc565b601d82019050919050565b6000612c0a603183613142565b9150612c1582613ae5565b604082019050919050565b6000612c2d602b83613142565b9150612c3882613b34565b604082019050919050565b612c4c816132dd565b82525050565b6000612c5e8285612884565b9150612c6a8284612884565b91508190509392505050565b6000612c81826128b5565b9150612c8d8284612884565b915081905092915050565b6000612ca382612b94565b9150612caf8286612884565b9150612cba826128d8565b9150612cc68285612884565b9150612cd182612ae5565b9150612cdd8284612884565b9150612ce882612a9f565b9150819050949350505050565b6000612d0082612bda565b9150612d0c8284612884565b915081905092915050565b6000602082019050612d2c60008301846127f4565b92915050565b6000608082019050612d4760008301876127f4565b612d5460208301866127f4565b612d616040830185612c43565b8181036060830152612d738184612812565b905095945050505050565b6000602082019050612d936000830184612803565b92915050565b60006020820190508181036000830152612db3818461284b565b905092915050565b60006060820190508181036000830152612dd5818661284b565b9050612de46020830185612c43565b612df160408301846127f4565b949350505050565b60006020820190508181036000830152612e12816128fb565b9050919050565b60006020820190508181036000830152612e328161291e565b9050919050565b60006020820190508181036000830152612e5281612941565b9050919050565b60006020820190508181036000830152612e7281612964565b9050919050565b60006020820190508181036000830152612e9281612987565b9050919050565b60006020820190508181036000830152612eb2816129aa565b9050919050565b60006020820190508181036000830152612ed2816129cd565b9050919050565b60006020820190508181036000830152612ef2816129f0565b9050919050565b60006020820190508181036000830152612f1281612a13565b9050919050565b60006020820190508181036000830152612f3281612a36565b9050919050565b60006020820190508181036000830152612f5281612a59565b9050919050565b60006020820190508181036000830152612f7281612a7c565b9050919050565b60006020820190508181036000830152612f9281612ac2565b9050919050565b60006020820190508181036000830152612fb281612b08565b9050919050565b60006020820190508181036000830152612fd281612b2b565b9050919050565b60006020820190508181036000830152612ff281612b4e565b9050919050565b6000602082019050818103600083015261301281612b71565b9050919050565b6000602082019050818103600083015261303281612bb7565b9050919050565b6000602082019050818103600083015261305281612bfd565b9050919050565b6000602082019050818103600083015261307281612c20565b9050919050565b600060208201905061308e6000830184612c43565b92915050565b600061309e6130af565b90506130aa828261335b565b919050565b6000604051905090565b600067ffffffffffffffff8211156130d4576130d3613493565b5b6130dd826134c2565b9050602081019050919050565b600067ffffffffffffffff82111561310557613104613493565b5b61310e826134c2565b9050602081019050919050565b600081519050919050565b600081519050919050565b600082825260208201905092915050565b600082825260208201905092915050565b600081905092915050565b6000613169826132dd565b9150613174836132dd565b9250827fffffffffffffffffffffffffffffffffffffffffffffffffffffffffffffffff038211156131a9576131a8613406565b5b828201905092915050565b60006131bf826132dd565b91506131ca836132dd565b9250826131da576131d9613435565b5b828204905092915050565b60006131f0826132dd565b91506131fb836132dd565b9250817fffffffffffffffffffffffffffffffffffffffffffffffffffffffffffffffff048311821515161561323457613233613406565b5b828202905092915050565b600061324a826132dd565b9150613255836132dd565b92508282101561326857613267613406565b5b828203905092915050565b600061327e826132bd565b9050919050565b60008115159050919050565b60007fffffffff0000000000000000000000000000000000000000000000000000000082169050919050565b600073ffffffffffffffffffffffffffffffffffffffff82169050919050565b6000819050919050565b82818337600083830152505050565b60005b838110156133145780820151818401526020810190506132f9565b83811115613323576000848401525b50505050565b6000600282049050600182168061334157607f821691505b6020821081141561335557613354613464565b5b50919050565b613364826134c2565b810181811067ffffffffffffffff8211171561338357613382613493565b5b80604052505050565b6000613397826132dd565b91507fffffffffffffffffffffffffffffffffffffffffffffffffffffffffffffffff8214156133ca576133c9613406565b5b600182019050919050565b60006133e0826132dd565b91506133eb836132dd565b9250826133fb576133fa613435565b5b828206905092915050565b7f4e487b7100000000000000000000000000000000000000000000000000000000600052601160045260246000fd5b7f4e487b7100000000000000000000000000000000000000000000000000000000600052601260045260246000fd5b7f4e487b7100000000000000000000000000000000000000000000000000000000600052602260045260246000fd5b7f4e487b7100000000000000000000000000000000000000000000000000000000600052604160045260246000fd5b6000601f19601f8301169050919050565b7f68747470733a2f2f6e6674707265766965772e30786465762e636f6465732f3f60008201527f636f64653d000000000000000000000000000000000000000000000000000000602082015250565b7f222c20226465736372697074696f6e223a202200000000000000000000000000600082015250565b7f4552433732313a207472616e7366657220746f206e6f6e20455243373231526560008201527f63656976657220696d706c656d656e7465720000000000000000000000000000602082015250565b7f4f776e61626c653a206e6577206f776e657220697320746865207a65726f206160008201527f6464726573730000000000000000000000000000000000000000000000000000602082015250565b7f4552433732313a207472616e736665722066726f6d20696e636f72726563742060008201527f6f776e6572000000000000000000000000000000000000000000000000000000602082015250565b7f4552433732313a20746f6b656e20616c7265616479206d696e74656400000000600082015250565b7f4552433732313a207472616e7366657220746f20746865207a65726f2061646460008201527f7265737300000000000000000000000000000000000000000000000000000000602082015250565b7f4552433732313a20617070726f766520746f2063616c6c657200000000000000600082015250565b7f4552433732313a206f70657261746f7220717565727920666f72206e6f6e657860008201527f697374656e7420746f6b656e0000000000000000000000000000000000000000602082015250565b7f4552433732313a20617070726f76652063616c6c6572206973206e6f74206f7760008201527f6e6572206e6f7220617070726f76656420666f7220616c6c0000000000000000602082015250565b7f4552433732313a2062616c616e636520717565727920666f7220746865207a6560008201527f726f206164647265737300000000000000000000000000000000000000000000602082015250565b7f4552433732313a206f776e657220717565727920666f72206e6f6e657869737460008201527f656e7420746f6b656e0000000000000000000000000000000000000000000000602082015250565b7f45524337323155524953746f726167653a2055524920736574206f66206e6f6e60008201527f6578697374656e7420746f6b656e000000000000000000000000000000000000602082015250565b7f496e697469616c697a61626c653a20636f6e747261637420697320616c72656160008201527f647920696e697469616c697a6564000000000000000000000000000000000000602082015250565b7f227d000000000000000000000000000000000000000000000000000000000000600082015250565b7f4552433732313a206d696e7420746f20746865207a65726f2061646472657373600082015250565b7f222c2022696d616765223a202200000000000000000000000000000000000000600082015250565b7f45524337323155524953746f726167653a2055524920717565727920666f722060008201527f6e6f6e6578697374656e7420746f6b656e000000000000000000000000000000602082015250565b7f4552433732313a20617070726f76656420717565727920666f72206e6f6e657860008201527f697374656e7420746f6b656e0000000000000000000000000000000000000000602082015250565b7f4f776e61626c653a2063616c6c6572206973206e6f7420746865206f776e6572600082015250565b7f4552433732314d657461646174613a2055524920717565727920666f72206e6f60008201527f6e6578697374656e7420746f6b656e0000000000000000000000000000000000602082015250565b7f7b226e616d65223a202200000000000000000000000000000000000000000000600082015250565b7f4552433732313a20617070726f76616c20746f2063757272656e74206f776e6560008201527f7200000000000000000000000000000000000000000000000000000000000000602082015250565b7f646174613a6170706c69636174696f6e2f6a736f6e3b6261736536342c000000600082015250565b7f4552433732313a207472616e736665722063616c6c6572206973206e6f74206f60008201527f776e6572206e6f7220617070726f766564000000000000000000000000000000602082015250565b7f496e697469616c697a61626c653a20636f6e7472616374206973206e6f74206960008201527f6e697469616c697a696e67000000000000000000000000000000000000000000602082015250565b613b8c81613273565b8114613b9757600080fd5b50565b613ba381613285565b8114613bae57600080fd5b50565b613bba81613291565b8114613bc557600080fd5b50565b613bd1816132dd565b8114613bdc57600080fd5b5056fe416e204e465420772f20494420257320686173206265656e206d696e74656420746f2025734142434445464748494a4b4c4d4e4f505152535455565758595a6162636465666768696a6b6c6d6e6f707172737475767778797a303132333435363738392b2fa26469706673582212204127e326f8c8b4bc8fc845021c0b2e57486857ebd3930331fd5935aae9767a9b64736f6c63430008040033",
  "linkReferences": {},
  "deployedLinkReferences": {}
}